:1000000008308A0000280000311DA029F430723A1F
:100010000000321D202AE5397400331DA029653AFD
:10002000F434EE337300341DA0266F3965000C29BB
:10003000E530E43C2E172E0500010C000C00533A6D
:100040006139F434EE332E172E00D432733A693707
:1000500067172E170001D432733A203AE832F43091
:1000600000016539F2377200C427CE22A1102100A9
:10007000D422532A202CA020D82453006539F237EB
:100080007200C427CE22A1102100D422532A202D91
:10009000A020D82453006539F2377200C427CE223D
:1000A000A1102100D332743A6937E7392E172E0098
:1000B000CD37F232A027703AE937EE392E172E00ED
:1000C000D422532A202CA020D82453000C006539B8
:1000D000F23772000C00C427CE22A1102100D432C6
:1000E000733A203AE832F43000010C006539F237F7
:1000F00072000C00C427CE22A1102100D422532A62
:10010000202DA020D82453000C006539F23772004E
:100110000C00C427CE22A110210038172E17000191
:1001200039172E17000130172E1700012A172E1726
:10013000000141172E17000142172E170001431727
:100140002E17000144172E17000123172E17000148
:100150000C008316861383128617831606138312E8
:1001600006178316861283128616831606128312CA
:1001700006168316811383128A150A1210282D3051
:100180008400831300080319D3280130F800F70115
:10019000F70BC828F80BC7284A30F700F70BCE2812
:1001A000D128800BC52808003318D8280812D92870
:1001B0000816831608128312B318E0288812E12863
:1001C00088168316881283123319E8280813E92841
:1001D0000817831608138312B319F0288813F1281F
:1001E000881783168813000083128716A012200830
:1001F00083168700FB2883128712A012200883161B
:10020000870083120800B401831608160030831299
:10021000081A0130B4048316881600308312881A35
:100220000130F7000310F70D7708B40483160817A0
:1002300000308312081B0130F700F70DF70DFC307A
:10024000F7057708B4048316881700308312881BDB
:100250000130F700F70DF70DF70DF830F7057708C7
:10026000B4043408F8000800A012200883168700A0
:10027000831220122008831687008312201320087F
:100280008316870083120712201220088316870026
:1002900008168816081788178312071720132008D6
:1002A00083168700000083128716A0122008831689
:1002B00087000000831203217808B3008712A01280
:1002C000200883168700000083128716A0122008DA
:1002D000831687000000831203217808B20087127A
:1002E000A0122008831687000812881208138813AA
:1002F0008312330EF700F030F70577083204F80068
:100300007808B200B21F862983164829B008031D59
:100310008B2907128C2907162012200883168700C4
:1003200000008312071320132008831687000000A3
:1003300083128712A0122008831687008312310EC1
:10034000B2000F30B2053208B300D42031080F39A3
:10035000B200B300D42008002830A9000C30AA0055
:100360000130AB000630AC008712A01220088316C3
:100370008700831207122012200883168700831239
:100380000713201320088316870008128812081309
:1003900088138312A012200883168700831220126C
:1003A00020088316870083122013200883168700F5
:1003B0000F308312AD00BF200130A8002808033C95
:1003C000031CEA290330B300D4200530AD00BF2060
:1003D000A80ADE290230B300D4200530AD00BF20CA
:1003E000A8012808033C031C012A2930280784009F
:1003F00083130008AD00B0012D08B1003421A80A14
:10040000F1298A150A121328FE30831685008312FB
:1004100005140430A800FA30AD00BF20A80B0B2A49
:10042000FE3083168500831205100430A800FA30D0
:10043000AD00BF20A80B172A8A150A1216282D0B0B
:10044000222A252A4030AE00262AAE0101302C0295
:10045000AE072E088038AF00B0012F08B10034215C
:1004600008002B08073A03193F2A0B3A0319442ABC
:10047000063A03194C2A023A0319522A572A013024
:10048000AC00AD001F225C2AB0010130B100342164
:100490000230AD00BF205C2A0130AC000230AD005C
:1004A0001F225C2AB0011030B10034215C2A0130D7
:1004B000B0002B08B100342108000B08A8008B13F2
:1004C000831603178C170C1400000000831203130B
:1004D000A81B8B1703170C087F390319B12A0313C4
:1004E000A80003170D080313A90003170F0803132F
:1004F000AA002808AB003122290803178D00031336
:100500002A0803178F0003130B08AB008B13831605
:1005100003178C170C140000000083120313AB1B8D
:100520008B1703170C0D0E0D7F390319B12A031316
:10053000A80003170D080313A90003170F080313DE
:10054000AA002808AB003122290803178D000313E5
:100550002A0803178F008D0A03198F0A03135D2AD7
:100560000317031308000130AC00AD001F22043054
:1005700003178D0000308F0003135D220130AC00A3
:100580000230AD001F22093003178D0000308F00AC
:1005900003135D221530AC000130AD001F220D3079
:1005A00003178D0000308F0003135D221530AC005F
:1005B0000230AD001F22133003178D0000308F0072
:1005C00003135D228A150A123B28A901831686139C
:1005D000831286138316861583128619012BAA01AE
:1005E0002A08633C031CFB2A831686158312861D8A
:1005F000A90AAA0AF02A2908323C0318012B313033
:10060000A800A90183168613831286178316061382
:10061000831206138316861583128619212BAB01CC
:100620002B08633C031C1B2B831686158312861D27
:10063000A90AAB0A102B2908323C0318212B3430AD
:10064000A800A901831606138312061783168612C3
:10065000831286128316861583128619412BAC01EC
:100660002C08633C031C3B2B831686158312861DC6
:10067000A90AAC0A302B2908323C0318412B373029
:10068000A800A90183168612831286168316061205
:10069000831206128316861583128619612BAD010B
:1006A0002D08633C031C5B2B831686158312861D65
:1006B000A90AAD0A502B2908323C0318612B2A30B5
:1006C000A800A90183160612831206168316861344
:1006D000831286138316061583120619812BAE0129
:1006E0002E08633C031C7B2B831606158312061D04
:1006F000A90AAE0A702B2908323C0318812B32302C
:10070000A800A90183168613831286178316061381
:10071000831206138316061583120619A12BAF0147
:100720002F08633C031C9B2B831606158312061DA2
:10073000A90AAF0A902B2908323C0318A12B3530A7
:10074000A800A901831606138312061783168612C2
:10075000831286128316061583120619C12BB00167
:100760003008633C031CBB2B831606158312061D41
:10077000A90AB00AB02B2908323C0318C12B383023
:10078000A800A90183168612831286168316061204
:10079000831206128316061583120619E12BB10186
:1007A0003108633C031CDB2B831606158312061DE0
:1007B000A90AB10AD02B2908323C0318E12B3030AA
:1007C000A800A90183160612831206168316861343
:1007D000831286138316861483128618012CB201A5
:1007E0003208633C031CFB2B831686148312861C81
:1007F000A90AB20AF02B2908323C0318012C333025
:10080000A800A90183168613831286178316061380
:10081000831206138316861483128618212CB301C3
:100820003308633C031C1B2C831686148312861C1E
:10083000A90AB30A102C2908323C0318212C36309F
:10084000A800A901831606138312061783168612C1
:10085000831286128316861483128618412CB401E3
:100860003408633C031C3B2C831686148312861CBD
:10087000A90AB40A302C2908323C0318412C39301B
:10088000A800A90183168612831286168316061203
:10089000831206128316861483128618612CB50102
:1008A0003508633C031C5B2C831686148312861C5C
:1008B000A90AB50A502C2908323C0318612C2330B0
:1008C000A800A90183160612831206168316861342
:1008D000831286138316061483120618812CB60120
:1008E0003608633C031C7B2C831606148312061CFB
:1008F000A90AB60A702C2908323C0318812C413011
:10090000A800A9018316861383128617831606137F
:10091000831206138316061483120618A12CB7013E
:100920003708633C031C9B2C831606148312061C99
:10093000A90AB70A902C2908323C0318A12C42308E
:10094000A800A901831606138312061783168612C0
:10095000831286128316061483120618C12CB8015E
:100960003808633C031CBB2C831606148312061C38
:10097000A90AB80AB02C2908323C0318C12C43300C
:10098000A800A90183168612831286168316061202
:10099000831206128316061483120618E12CB9017D
:1009A0003908633C031CDB2C831606148312061CD7
:1009B000A90AB90AD02C2908323C0318E12C44308A
:1009C000A800A90183160612831206162808F8004B
:1009D0008A150A124028FE3083168500831285147A
:1009E0003230AD00BF20FE30831685008312051D16
:1009F000012DFE3083168500831285100030F8002B
:100A0000082DFE3083168500831285100130F80012
:100A1000080083168810831288143230AD00BF207E
:100A2000831608148312081C1C2D83168810831249
:100A300088100030F800222D831688108312881049
:100A40000130F800080083160811831208150F30D2
:100A5000AD00BF20A0152008831687008312871DD4
:100A6000382D83160811831208110030F8003E2D2E
:0E0A700083160811831208110130F8000800E7
:1010000003081F398300FF30A00083161F149F14AC
:101010001F159F1107309C0083138A118312A92882
:101020008A158A11AC298A158A11042A8A15A10108
:101030008316881083128810FE3083168500831271
:1010400085108316081183120811173003178D00BD
:1010500000308F008A1103135D228A151D3003179B
:101060008D0000308F008A1103135D228A156530D0
:10107000A1008A11B32A8A152108A8008A11E52A3D
:101080008A157808A1002108653C03199E2B1E30A3
:1010900003178D0000308F008A1103135D228A151B
:1010A0002108313A03198228033A03199B28013A8F
:1010B00003199429073A0319AD29013A0319C629DE
:1010C000033A0319152A013A0319642A0F3A03193E
:1010D000B32A013A0319CC2A093A0319E52A1A3A24
:1010E0000319FE2A6B3A0319172B033A0319302B05
:1010F000013A0319492B073A0319622B673A03197E
:101100007B2B942B0130AC00AD008A111F228A1575
:101110001F3003178D0000308F008A1103135D22EA
:101120008A150430A800FA30AD008A11BF208A1554
:10113000A80B9328942B0130AC00AD008A111F221C
:101140008A15253003178D0000308F008A11031394
:101150005D228A150430A800FA30AD008A11BF2044
:101160008A15A80BAC280130AC00AD008A111F22F3
:101170008A152B3003178D0000308F008A1103135E
:101180005D228A150430A800FA30AD008A11BF2014
:101190008A15A80BC4288A11EB248A157808A200A6
:1011A000A2080319E4280C30AC000130AD008A110C
:1011B0001F228A15313003178D0000308F008A11ED
:1011C00003135D228A15F4280C30AC000130AD0009
:1011D0008A111F228A15343003178D0000308F00CA
:1011E0008A1103135D228A150430A800FA30AD007D
:1011F0008A11BF208A15A80BF6280130AC000230F6
:10120000AD008A111F228A15383003178D00003077
:101210008F008A1103135D228A150430A800FA306A
:10122000AD008A11BF208A15A80B0F298A11092544
:101230008A157808A300A30803192F290D30AC00E4
:101240000230AD008A111F228A153E3003178D002F
:1012500000308F008A1103135D228A153F290D305B
:10126000AC000230AD008A111F228A1541300317ED
:101270008D0000308F008A1103135D228A1504301F
:10128000A800FA30AD008A11BF208A15A80B4129A9
:101290001530AC000130AD008A111F228A1545308F
:1012A00003178D0000308F008A1103135D228A1509
:1012B0000430A800FA30AD008A11BF208A15A80BAF
:1012C0005A298A1123258A157808A400A40803192D
:1012D0007A292330AC000130AD008A111F228A1513
:1012E0004B3003178D0000308F008A1103135D22ED
:1012F0008A158A292330AC000130AD008A111F22E3
:101300008A154E3003178D0000308F008A110313A9
:101310005D228A151030A800FA30AD008A11BF2076
:101320008A15A80B8C29942B0130AC00AD008A11D2
:101330001F228A15523003178D0000308F008A114A
:1013400003135D228A150430A800FA30AD008A111B
:10135000BF208A15A80BA529942B0130AC00AD0045
:101360008A111F228A15583003178D0000308F0014
:101370008A1103135D228A150430A800FA30AD00EB
:101380008A11BF208A15A80BBE29942B0130AC000E
:10139000AD008A111F228A15603003178D000030BE
:1013A0008F008A1103135D228A150430A800FA30D9
:1013B000AD008A11BF208A15A80BD7298A110925EB
:1013C0008A157808A500A5080319F92966300317BE
:1013D0008D0000308F008A1103135D228A1567305B
:1013E00003178D0000308F008A1103135D228A15C8
:1013F0000B2A6A3003178D0000308F008A11031307
:101400005D228A156B3003178D0000308F008A1122
:1014100003135D228A150430A800FA30AD008A114A
:10142000BF208A15A80B0D2A942B0130AC00AD000B
:101430008A111F228A156F3003178D0000308F002C
:101440008A1103135D228A150430A800FA30AD001A
:101450008A11BF208A15A80B262A8A11EB248A1527
:101460007808A600A6080319482A753003178D00CE
:1014700000308F008A1103135D228A15763003171E
:101480008D0000308F008A1103135D228A155A2ABD
:10149000793003178D0000308F008A1103135D220D
:1014A0008A157A3003178D0000308F008A110313DC
:1014B0005D228A150430A800FA30AD008A11BF20E1
:1014C0008A15A80B5C2A942B0130AC00AD008A1160
:1014D0001F228A157E3003178D0000308F008A117D
:1014E00003135D228A150430A800FA30AD008A117A
:1014F000BF208A15A80B752A8A1123258A1578081A
:10150000A700A7080319972A843003178D0000301D
:101510008F008A1103135D228A15853003178D0011
:1015200000308F008A1103135D228A15A92A8830A2
:1015300003178D0000308F008A1103135D228A1576
:10154000893003178D0000308F008A1103135D224C
:101550008A150430A800FA30AD008A11BF208A1520
:10156000A80BAB2A942B0130AC00AD008A111F22CE
:101570008A158D3003178D0000308F008A110313F8
:101580005D228A150430A800FA30AD008A11BF2010
:101590008A15A80BC42A942B0130AC00AD008A1127
:1015A0001F228A15903003178D0000308F008A119A
:1015B00003135D228A150430A800FA30AD008A11A9
:1015C000BF208A15A80BDD2A942B0130AC00AD009A
:1015D0008A111F228A15933003178D0000308F0067
:1015E0008A1103135D228A150430A800FA30AD0079
:1015F0008A11BF208A15A80BF62A942B0130AC0063
:10160000AD008A111F228A15963003178D00003015
:101610008F008A1103135D228A150430A800FA3066
:10162000AD008A11BF208A15A80B0F2B942B013017
:10163000AC00AD008A111F228A15993003178D0066
:1016400000308F008A1103135D228A150430A80030
:10165000FA30AD008A11BF208A15A80B282B942BD5
:101660000130AC00AD008A111F228A159C3003178F
:101670008D0000308F008A1103135D228A1504301B
:10168000A800FA30AD008A11BF208A15A80B412BA3
:10169000942B0130AC00AD008A111F228A159F30B7
:1016A00003178D0000308F008A1103135D228A1505
:1016B0000430A800FA30AD008A11BF208A15A80BAB
:1016C0005A2B942B0130AC00AD008A111F228A15D1
:1016D000A23003178D0000308F008A1103135D22A2
:1016E0008A150430A800FA30AD008A11BF208A158F
:1016F000A80B732B942B0130AC00AD008A111F2274
:101700008A15A53003178D0000308F008A1103134E
:101710005D228A150430A800FA30AD008A11BF207E
:101720008A15A80B8C2B942BA83003178D00003042
:101730008F008A1103135D228A15A10137286300E7
:02400E00313F40
:00000001FF
;PIC16F877A
;CRC=AF05  CREATED="13-Feb-24 23:36"
